:100000000C942A000C9447000C9447000C94470071
:100010000C9447000C9447000C9447000C94470044
:100020000C9447000C94A7070C9447000C944700CD
:100030000C9447000C9447000C9447000C94470024
:100040000C9447000C9447000C9447000C94470014
:100050000C94470011241FBECFE5D8E0DEBFCDBF12
:1000600010E0A0E6B0E0E8E9F0E102C005900D92F2
:10007000A037B107D9F720E0A0E7B0E001C01D929A
:10008000A33AB207E1F70E9475000C944A080C9459
:100090000000CF93DF93CDB7DEB780E10E94F4007C
:1000A0000000DF91CF910895CF93DF93CDB7DEB7F6
:1000B00080E20E94F4000000DF91CF910895CF9379
:1000C000DF93CDB7DEB780E40E94F4000000DF913B
:1000D000CF910895CF93DF93CDB7DEB780E80E942C
:1000E000F4000000DF91CF910895CF93DF93CDB757
:1000F000DEB780E10E94AA0080E20E94AA0080E4AC
:100100000E94AA0080E80E94AA000E9444014AE0DE
:1001100050E065E089E490E00E94CD0148EC50E0B9
:1001200064E084E590E00E94CD014CE251E063E0A0
:100130008FE590E00E94CD0140E951E062E08AE65F
:1001400090E00E94CD010E94630280E090E0DF9188
:10015000CF910895CF93DF931F92CDB7DEB78983F8
:100160008981882F90E080329105C1F0813291051C
:100170001CF4409741F033C080349105D1F08038B1
:10018000910511F12CC04FEF60E181E00E94F20275
:1001900040E060E181E00E949E0321C04FEF60E2F9
:1001A00081E00E94F20240E060E281E00E949E0352
:1001B00016C04FEF60E481E00E94F20240E060E48C
:1001C00081E00E949E030BC04FEF60E881E00E9437
:1001D000F20240E060E881E00E949E03000000001F
:1001E0000F90DF91CF910895CF93DF931F92CDB7FA
:1001F000DEB789838981882F90E08032910591F064
:10020000813291051CF4409741F01BC08034910568
:1002100071F08038910581F014C060E181E00E94A6
:100220003D040FC060E281E00E943D040AC060E42A
:1002300081E00E943D0405C060E881E00E943D0429
:10024000000000000F90DF91CF910895CF93DF93CE
:10025000CDB7DEB7809160009091610001969093D8
:100260006100809360008091600090916100883E01
:100270009D4F31F481E090E09093610080936000A5
:100280000000DF91CF910895CF93DF9300D000D08D
:1002900000D0CDB7DEB71A820E94880485E590E0D1
:1002A00025E530E0F90120812F78FC012083409181
:1002B00060005091610028EE33E0429FC001439FEF
:1002C000900D529F900D1124CC01A0E0B0E08B83E3
:1002D0009C83AD83BE8386E291E00E9494071982DD
:1002E0003DC08981282F30E0C901880F991F820FF6
:1002F000931F880F991F8D589F4FFC011182108208
:100300008981282F30E0C901880F991F820F931F20
:10031000880F991F8E589F4FFC0110828981282FCA
:1003200030E0C901880F991F820F931F880F991F12
:100330008B589F4FFC0110828981282F30E0C90122
:10034000880F991F820F931F880F991F80599F4F05
:10035000FC011182108289818F5F898389818630B7
:1003600008F4BFCF85E690E00E9499048B819C81C0
:10037000AD81BE81AC01BD0181E00E940C0681E02F
:100380000E94560700008A8126960FB6F894DEBFB9
:100390000FBECDBFDF91CF910895CF93DF93CDB73F
:1003A000DEB727970FB6F894DEBF0FBECDBF9C8394
:1003B0008B836D835F834E8319828B819C81892B14
:1003C00009F475C01A826EC08A81282F30E0C901F5
:1003D000880F991F820F931F880F991F80599F4F75
:1003E000FC0180819181892B09F057C08A81282FD7
:1003F00030E0C901880F991F820F931F880F991F42
:1004000080599F4F2B813C81FC01318320838A815D
:10041000282F30E0C901880F991F820F931F880F82
:10042000991F8D589F4F2E813F81FC01318320837E
:100430008A81282F30E0C901880F991F820F931FEE
:10044000880F991F8B589F4F21E0FC0120838D81DD
:10045000873080F48A81282F30E0C901880F991FE6
:10046000820F931F880F991F8E589F4F2D81FC017B
:10047000208311C08A81282F30E0C901880F991F7D
:10048000820F931F880F991F8E589F4F26E0FC0103
:10049000208384E0898319820CC083E089838A8168
:1004A0008F5F8A838A81863008F48ECF02C081E014
:1004B0008983898127960FB6F894DEBF0FBECDBF22
:1004C000DF91CF910895CF93DF9300D0CDB7DEB702
:1004D00019821A8219824CC08981282F30E0C90103
:1004E000880F991F820F931F880F991F8B589F4F5A
:1004F000FC0180818130C9F540916000509161001C
:100500008981282F30E0C901880F991F820F931F1E
:10051000880F991F8D589F4FFC0120813181CA019E
:10052000B9010E94FA07892B01F58981282F30E053
:10053000C901880F991F820F931F880F991F8E582A
:100540009F4FFC0190818A81891778F48981282F37
:1005500030E0C901880F991F820F931F880F991FE0
:100560008E589F4FFC0180818A8389818F5F8983A8
:100570008981863008F4B0CF8A818823F9F08A8196
:10058000282F30E0C901880F991F820F931F880F11
:10059000991F80599F4FFC0180819181FC01099531
:1005A0008A81282F30E0C901880F991F820F931F7D
:1005B000880F991F8B589F4FFC01108285E590E0B2
:1005C00025E530E0F90120812068FC012083889531
:1005D00085E590E025E530E0F90120812F77FC01E9
:1005E000208378CFCF93DF9300D01F92CDB7DEB7B3
:1005F00089836A834B838981882F90E081309105BC
:1006000081F1823091051CF4892B49F090C0823031
:10061000910509F448C0039709F467C088C08B812D
:10062000882F90E0009721F08F3F910571F07FC0F7
:100630008AE390E02AE330E0F9012081322F2A8119
:1006400020952323FC0120830BC08AE390E02AE35A
:1006500030E0F90130812A81232BFC012083000046
:1006600066C08B81882F90E0009721F08F3F910525
:1006700071F05DC087E390E027E330E0F90120816D
:10068000322F2A8120952323FC0120830BC087E38E
:1006900090E027E330E0F90130812A81232BFC012F
:1006A0002083000044C08B81882F90E0009721F0C8
:1006B0008F3F910571F03BC084E390E024E330E08C
:1006C000F9012081322F2A8120952323FC012083E8
:1006D0000BC084E390E024E330E0F90130812A810B
:1006E000232BFC012083000022C08B81882F90E007
:1006F000009721F08F3F910571F018C081E390E0E1
:1007000021E330E0F9012081322F2A812095232333
:10071000FC0120830BC081E390E021E330E0F9018C
:1007200030812A81232BFC0120830000000000007F
:100730000F900F900F90DF91CF910895CF93DF939B
:1007400000D01F92CDB7DEB789836A834B838B813C
:10075000882F90E0009709F442C0019709F086C005
:100760008981882F90E081309105B9F08230910520
:100770001CF4892B39F07AC082309105C9F00397B7
:1007800011F174C08BE390E02BE330E0F90130818C
:100790002A81232BFC01208321C088E390E028E3F9
:1007A00030E0F90130812A81232BFC01208316C01F
:1007B00085E390E025E330E0F90130812A81232BA5
:1007C000FC0120830BC082E390E022E330E0F901DA
:1007D00030812A81232BFC012083000047C08981BE
:1007E000882F90E081309105C9F0823091051CF48A
:1007F000892B39F03AC082309105E9F0039741F135
:1008000034C08BE390E02BE330E0F9012081322FFC
:100810002A8120952323FC01208327C088E390E0D0
:1008200028E330E0F9012081322F2A81209523230B
:10083000FC0120831AC085E390E025E330E0F90154
:100840002081322F2A8120952323FC0120830DC093
:1008500082E390E022E330E0F9012081322F2A8107
:1008600020952323FC0120830000000000000F904E
:100870000F900F90DF91CF910895CF93DF9300D029
:10088000CDB7DEB789836A838981882F90E0813074
:100890009105B9F0823091051CF4892B39F032C0F2
:1008A00082309105C9F0039711F12CC08BE390E0E1
:1008B0002BE330E0F90130812A812327FC012083DA
:1008C00021C088E390E028E330E0F90130812A81FB
:1008D0002327FC01208316C085E390E025E330E068
:1008E000F90130812A812327FC0120830BC082E398
:1008F00090E022E330E0F90130812A812327FC01D6
:100900002083000000000F900F90DF91CF91089599
:10091000CF93DF93CDB7DEB78FE590E02FE530E0E2
:10092000F90120812068FC0120830000DF91CF9134
:100930000895CF93DF9300D01F92CDB7DEB79B838E
:100940008A8319828A819B81FC0187819085A18598
:10095000B2858093940090939500A0939600B093F5
:1009600097008A819B81FC018081882F90E08130F3
:10097000910509F464C08230910509F4CCC0892B3B
:1009800009F026C183E590E023E530E0F9014081DC
:100990002A813B81F9012181242BFC01208389E5F7
:1009A00090E029E530E0F90140812A813B81F9019D
:1009B0002681242BFC01208380916200882F90E007
:1009C00082309105E9F0833091052CF4009761F0B5
:1009D000019779F031C08430910501F1843091059F
:1009E000B4F0059711F128C01092A00010929F005A
:1009F00023C081E090E09093A00080939F001CC0F2
:100A000088E090E09093A00080939F0015C080E460
:100A100090E09093A00080939F000EC080E091E052
:100A20009093A00080939F0007C080E094E0909393
:100A3000A00080939F00000081E08983CBC08FE4F9
:100A400090E02FE430E0F9012081422F2A813B81A0
:100A5000F90121812370242BFC0120838EE490E096
:100A60002EE430E0F9012081422F2A813B81F901F7
:100A700021812871242BFC01208389E590E029E560
:100A800030E0F90120812460FC0120830E94880469
:100A900080916300882F90E082309105E9F08330E7
:100AA00091052CF4009761F0019779F031C0843002
:100AB000910501F184309105B4F0059711F128C03A
:100AC0001092A2001092A10023C081E090E09093C8
:100AD000A2008093A1001CC088E090E09093A20047
:100AE0008093A10015C080E490E09093A2008093D1
:100AF000A1000EC080E091E09093A2008093A1003D
:100B000007C080E094E09093A2008093A1000000D1
:100B100081E089835FC085E490E025E430E0F9015D
:100B200040812A813B81F9012181242BFC01208312
:100B300089E590E029E530E0F90140812A813B8197
:100B4000F9012681242BFC01208380916400882FE9
:100B500090E082309105E9F0833091052CF4009704
:100B600061F0019779F031C08630910501F187304D
:100B7000910521F10497A1F028C010929E001092D7
:100B80009D0023C081E090E090939E0080939D00A3
:100B90001CC088E090E090939E0080939D0015C05B
:100BA00080E490E090939E0080939D000EC080E0D2
:100BB00091E090939E0080939D0007C080E094E0B8
:100BC00090939E0080939D00000081E0898302C085
:100BD000198200008A819B81FC0182819381A4811A
:100BE000B58190939900809398008091980090919E
:100BF0009900CC01A0E0B0E02A813B81F90120817D
:100C0000AC01BD01822F0E940C0689810F900F90CC
:100C10000F90DF91CF910895CF93DF93CDB7DEB7DB
:100C20002D970FB6F894DEBF0FBECDBF89874A87D8
:100C30005B876C877D8719821A821B821C8289855B
:100C4000882F90E08130910509F461C082309105D0
:100C500009F4BDC0892B09F014C180919F009091C7
:100C6000A000CC01A0E0B0E09C01AD0160E472E422
:100C70008FE090E00E94EA07DC01CB012091940014
:100C8000309195004091960050919700BC01CD01A4
:100C90000E940E08DA01C9019C01AD018A859B857D
:100CA000AC85BD85BC01CD010E940E08DA01C901E9
:100CB0008D839E83AF83B8878D819E81AF81B885F8
:100CC00081309140A105B10528F019821A821B825A
:100CD0001C82DCC08D819E8120E031E0A901481B8F
:100CE000590BCA01909399008093980082E590E097
:100CF0002091980030919900FC01208381E090E0E0
:100D0000A0E0B0E089839A83AB83BC83BFC08091AD
:100D1000A1009091A200CC01A0E0B0E09C01AD0147
:100D200060E472E48FE090E00E94EA07DC01CB010E
:100D30002091940030919500409196005091970039
:100D4000BC01CD010E940E08DA01C9019C01AD0170
:100D50008A859B85AC85BD85BC01CD010E940E08AE
:100D6000DA01C9018D839E83AF83B8878D819E810F
:100D7000AF81B8850197A140B10528F019821A8288
:100D80001B821C8283C08D819E81919581959109E2
:100D900090939900809398008DE490E020919800C2
:100DA00030919900232F3327FC0120838CE490E0BD
:100DB0002091980030919900FC01208381E090E01F
:100DC000A0E0B0E089839A83AB83BC835FC080914D
:100DD0009D0090919E00CC01A0E0B0E09C01AD018F
:100DE00060E472E48FE090E00E94EA07DC01CB014E
:100DF0002091940030919500409196005091970079
:100E0000BC01CD010E940E08DA01C9019C01AD01AF
:100E10008A859B85AC85BD85BC01CD010E940E08ED
:100E2000DA01C9018D839E83AF83B8878D819E814E
:100E3000AF81B88581309140A105B10528F01982B4
:100E40001A821B821C8222C08D819E8120E031E0AB
:100E5000A901481B590BCA019093990080939800EF
:100E600084E490E02091980030919900FC01208367
:100E700081E090E0A0E0B0E089839A83AB83BC83FB
:100E800005C019821A821B821C8200008A859B85FC
:100E9000909399008093980089812D960FB6F894CD
:100EA000DEBF0FBECDBFDF91CF910895CF93DF930B
:100EB0001F92CDB7DEB789838981882F90E081307A
:100EC000910599F082309105E9F0892B09F027C04E
:100ED00083E590E023E530E0F9012081287F30911F
:100EE0006200232BFC0120831AC08EE490E02EE4E4
:100EF00030E0F9012081287F30916300232BFC0131
:100F000020830DC085E490E025E430E0F9012081E4
:100F1000287F30916400232BFC012083000081E0B6
:100F20000F90DF91CF910895CF93DF9300D0CDB78D
:100F3000DEB79A83898389819A8190939B008093FD
:100F40009A0000000F900F90DF91CF9108951F92AB
:100F50000F9200905F000F9211242F933F934F93B5
:100F60005F936F937F938F939F93AF93BF93EF9311
:100F7000FF93CF93DF93CDB7DEB780919A00909126
:100F80009B00892B31F080919A0090919B00FC018D
:100F900009958091980090919900CC01A0E0B0E073
:100FA000AC01BD0181E00E940C060000DF91CF91F1
:100FB000FF91EF91BF91AF919F918F917F916F9131
:100FC0005F914F913F912F910F9000925F000F9092
:100FD0001F901895DB018F939F930E943008BF915B
:100FE000AF91A29F800D911DA39F900DB29F900D78
:100FF00011240895AA1BBB1B51E107C0AA1FBB1FE8
:10100000A617B70710F0A61BB70B881F991F5A9594
:10101000A9F780959095BC01CD010895A1E21A2E03
:10102000AA1BBB1BFD010DC0AA1FBB1FEE1FFF1F8C
:10103000A217B307E407F50720F0A21BB30BE40BDC
:10104000F50B661F771F881F991F1A9469F7609523
:101050007095809590959B01AC01BD01CF010895DD
:101060000E943B08A59F900DB49F900DA49F800DFA
:10107000911D11240895A29FB001B39FC001A39FA9
:10108000700D811D1124911DB29F700D811D1124C1
:08109000911D0895F894FFCFB3
:101098000100010501010040420F000100127A0021
:00000001FF
