:100000000C942A000C9447000C9447000C94470071
:100010000C9447000C9447000C9447000C94470044
:100020000C9447000C9440080C9447000C94470033
:100030000C9447000C9447000C9447000C94470024
:100040000C9447000C9447000C9447000C94470014
:100050000C94470011241FBECFE5D8E0DEBFCDBF12
:1000600010E0A0E6B0E0ECECF1E102C005900D92EA
:10007000AE36B107D9F720E0AEE6B0E001C01D9280
:10008000A53AB207E1F70E9475000C94E4080C94BD
:100090000000CF93DF93CDB7DEB780E10E94F4007C
:1000A0000000DF91CF910895CF93DF93CDB7DEB7F6
:1000B00080E20E94F4000000DF91CF910895CF9379
:1000C000DF93CDB7DEB780E40E94F4000000DF913B
:1000D000CF910895CF93DF93CDB7DEB780E80E942C
:1000E000F4000000DF91CF910895CF93DF93CDB757
:1000F000DEB780E10E94AA0080E20E94AA0080E4AC
:100100000E94AA0080E80E94AA000E9444014CE2DA
:1001100051E065E089E490E00E94C40146E950E0C6
:1001200064E084E590E00E94C4014BE450E063E0A9
:100130008FE590E00E94C4014EE150E062E08AE663
:1001400090E00E94C4010E94580280E090E0DF919C
:10015000CF910895CF93DF931F92CDB7DEB78983F8
:100160008981882F90E080329105C1F0813291051C
:100170001CF4409741F033C080349105D1F08038B1
:10018000910511F12CC04FEF60E181E00E943F0327
:1001900040E060E181E00E94EB0321C04FEF60E2AC
:1001A00081E00E943F0340E060E281E00E94EB03B7
:1001B00016C04FEF60E481E00E943F0340E060E43E
:1001C00081E00E94EB030BC04FEF60E881E00E94EA
:1001D0003F0340E060E881E00E94EB030000000084
:1001E0000F90DF91CF910895CF93DF931F92CDB7FA
:1001F000DEB789838981882F90E08032910591F064
:10020000813291051CF4409741F01BC08034910568
:1002100071F08038910581F014C060E181E00E94A6
:100220008A040FC060E281E00E948A040AC060E490
:1002300081E00E948A0405C060E881E00E948A048F
:10024000000000000F90DF91CF910895CF93DF93CE
:10025000CDB7DEB780919200909193000196909374
:100260009300809392008091920090919300883E39
:100270009D4F31F481E090E0909393008093920041
:100280000000DF91CF910895CF93DF9300D000D08D
:1002900000D0CDB7DEB71A8281E090E09093930052
:1002A000809392000E94D50485E590E025E530E03A
:1002B000F90120812F78FC01208388EE93E0A0E0F3
:1002C000B0E08B839C83AD83BE8386E291E00E9485
:1002D0002D0819823DC08981282F30E0C901880F7F
:1002E000991F820F931F880F991F8F589F4FFC01F2
:1002F000118210828981282F30E0C901880F991F4F
:10030000820F931F880F991F80599F4FFC01108205
:100310008981282F30E0C901880F991F820F931F10
:10032000880F991F8D589F4FFC0110828981282FBB
:1003300030E0C901880F991F820F931F880F991F02
:1003400082599F4FFC011182108289818F5F8983BE
:100350008981863008F4BFCF83E690E00E94E604EE
:100360008B819C81AD81BE81AC01BD0181E00E9489
:100370005E0600008A8126960FB6F894DEBF0FBE97
:10038000CDBFDF91CF910895CF93DF93CDB7DEB787
:1003900027970FB6F894DEBF0FBECDBF9C838B832B
:1003A0006D835F834E8319828B819C81892B09F435
:1003B00073C01A826CC08A81282F30E0C901880F6F
:1003C000991F820F931F880F991F82599F4FFC011D
:1003D00080819181892B09F055C08A81282F30E0D6
:1003E000C901880F991F820F931F880F991F825987
:1003F0009F4F2B813C81FC01318320838A81282FF0
:1004000030E0C901880F991F820F931F880F991F31
:100410008F589F4F2E813F81FC01318320838A8139
:10042000282F30E0C901880F991F820F931F880F72
:10043000991F8D589F4F21E0FC0120838D818730CB
:1004400080F48A81282F30E0C901880F991F820F1C
:10045000931F880F991F80599F4F2D81FC01208386
:100460000FC08A81282F30E0C901880F991F820FA1
:10047000931F880F991F80599F4F26E0FC0120830E
:1004800019820CC083E089838A818F5F8A838A8185
:10049000863008F490CF02C081E089838981279655
:1004A0000FB6F894DEBF0FBECDBFDF91CF91089598
:1004B000CF93DF9300D01F92CDB7DEB719828FEFB5
:1004C0008A831B8281E00E94EF07198298C089818C
:1004D000282F880F330BC901880F991F820F931F94
:1004E000880F991F8D589F4FFC018081882F90E0C5
:1004F0008130910571F08230910524F4892B09F443
:1005000076C07AC08230910581F1039709F441C029
:1005100073C08B81482F880F550B8981282F880F36
:10052000330BC901880F991F820F931F880F991FE2
:1005300080599F4FFC018081882F90E04817590710
:100540000CF057C08981282F880F330BC901880F01
:10055000991F820F931F880F991F80599F4FFC018D
:1005600080818B8389818A8344C08981282F880F69
:10057000330BC901880F991F820F931F880F991F92
:100580008D589F4F23E0FC0120838981815089830E
:1005900033C040919200509193008981282F880F99
:1005A000330BC901880F991F820F931F880F991F62
:1005B0008F589F4FFC0120813181CA01B9010E94EF
:1005C0009408892BC1F48981282F880F330BC90126
:1005D000880F991F820F931F880F991F8D589F4F67
:1005E00021E0FC01208389818150898304C00000BF
:1005F00003C0000001C0000089818F5F8983898169
:1006000086300CF464CF8A8188232CF18A81282FCC
:10061000880F330BC901880F991F820F931F880F12
:10062000991F82599F4FFC0180819181FC0109959E
:100630008A81282F880F330BC901880F991F820FD9
:10064000931F880F991F8D589F4F22E0FC01208334
:100650008FEF8A831B8285E590E025E530E0F90184
:1006600020812068FC012083889585E590E025E5C0
:1006700030E0F90120812F77FC01208326CFCF9332
:10068000DF9300D01F92CDB7DEB789836A834B8397
:100690008981882F90E08130910581F18230910528
:1006A0001CF4892B49F090C08230910509F448C0B0
:1006B000039709F467C088C08B81882F90E000976A
:1006C00021F08F3F910571F07FC08AE390E02AE32B
:1006D00030E0F9012081322F2A8120952323FC016B
:1006E00020830BC08AE390E02AE330E0F9013081F7
:1006F0002A81232BFC012083000066C08B81882F78
:1007000090E0009721F08F3F910571F05DC087E385
:1007100090E027E330E0F9012081322F2A812095F3
:100720002323FC0120830BC087E390E027E330E024
:10073000F90130812A81232BFC012083000044C071
:100740008B81882F90E0009721F08F3F910571F009
:100750003BC084E390E024E330E0F9012081322FB4
:100760002A8120952323FC0120830BC084E390E0A1
:1007700024E330E0F90130812A81232BFC0120831E
:10078000000022C08B81882F90E0009721F08F3FDE
:10079000910571F018C081E390E021E330E0F901A8
:1007A0002081322F2A8120952323FC0120830BC036
:1007B00081E390E021E330E0F90130812A81232BAD
:1007C000FC0120830000000000000F900F900F90AC
:1007D000DF91CF910895CF93DF9300D01F92CDB7D3
:1007E000DEB789836A834B838B81882F90E00097E3
:1007F00009F442C0019709F086C08981882F90E0F2
:1008000081309105B9F0823091051CF4892B39F0C3
:100810007AC082309105C9F0039711F174C08BE35F
:1008200090E02BE330E0F90130812A81232BFC0199
:10083000208321C088E390E028E330E0F901308193
:100840002A81232BFC01208316C085E390E025E359
:1008500030E0F90130812A81232BFC0120830BC079
:1008600082E390E022E330E0F90130812A81232BFA
:10087000FC012083000047C08981882F90E08130EF
:100880009105C9F0823091051CF4892B39F03AC0EA
:1008900082309105E9F0039741F134C08BE390E099
:1008A0002BE330E0F9012081322F2A812095232388
:1008B000FC01208327C088E390E028E330E0F901C1
:1008C0002081322F2A8120952323FC0120831AC006
:1008D00085E390E025E330E0F9012081322F2A8181
:1008E00020952323FC0120830DC082E390E022E3C6
:1008F00030E0F9012081322F2A8120952323FC0149
:1009000020830000000000000F900F900F90DF91F7
:10091000CF910895CF93DF9300D0CDB7DEB7898311
:100920006A838981882F90E081309105B9F0823007
:1009300091051CF4892B39F032C082309105C9F041
:10094000039711F12CC08BE390E02BE330E0F90129
:1009500030812A812327FC01208321C088E390E095
:1009600028E330E0F90130812A812327FC0120832C
:1009700016C085E390E025E330E0F90130812A815B
:100980002327FC0120830BC082E390E022E330E0C8
:10099000F90130812A812327FC0120830000000017
:1009A0000F900F90DF91CF910895CF93DF93CDB744
:1009B000DEB78FE590E02FE530E0F9012081206877
:1009C000FC0120830000DF91CF910895CF93DF9346
:1009D00000D01F92CDB7DEB79B838A8319828A81AC
:1009E0009B81FC0187819085A185B28580939400CD
:1009F00090939500A0939600B09397008A819B8175
:100A0000FC018081882F90E08130910509F464C059
:100A10008230910509F4CCC0892B09F026C183E509
:100A200090E023E530E0F90140812A813B81F90122
:100A30002181242BFC01208389E590E029E530E029
:100A4000F90140812A813B81F9012681242BFC0197
:100A5000208380916000882F90E082309105E9F03A
:100A6000833091052CF4009761F0019779F031C043
:100A70008430910501F184309105B4F0059711F1AE
:100A800028C01092A2001092A10023C081E090E043
:100A90009093A2008093A1001CC088E090E0909306
:100AA000A2008093A10015C080E490E09093A20082
:100AB0008093A1000EC080E091E09093A20080930B
:100AC000A10007C080E094E09093A2008093A10071
:100AD000000081E08983CBC08FE490E02FE430E018
:100AE000F9012081422F2A813B81F9012181237064
:100AF000242BFC0120838EE490E02EE430E0F90109
:100B00002081422F2A813B81F90121812871242BE8
:100B1000FC01208389E590E029E530E0F90120819E
:100B20002460FC0120830E94D50480916100882FFD
:100B300090E082309105E9F0833091052CF4009724
:100B400061F0019779F031C08430910501F1843072
:100B50009105B4F0059711F128C01092A4001092ED
:100B6000A30023C081E090E09093A4008093A300B1
:100B70001CC088E090E09093A4008093A30015C06F
:100B800080E490E09093A4008093A3000EC080E0E6
:100B900091E09093A4008093A30007C080E094E0CC
:100BA0009093A4008093A300000081E089835FC03C
:100BB00085E490E025E430E0F90140812A813B8121
:100BC000F9012181242BFC01208389E590E029E5AE
:100BD00030E0F90140812A813B81F9012681242BF3
:100BE000FC01208380916200882F90E08230910583
:100BF000E9F0833091052CF4009761F0019779F0CA
:100C000031C08630910501F18730910521F10497BB
:100C1000A1F028C01092A00010929F0023C081E094
:100C200090E09093A00080939F001CC088E090E02B
:100C30009093A00080939F0015C080E490E0909373
:100C4000A00080939F000EC080E091E09093A000F0
:100C500080939F0007C080E094E09093A000809371
:100C60009F00000081E0898302C0198200008A8110
:100C70009B81FC0182819381A481B581809398003E
:100C800090939900A0939A00B0939B008091980054
:100C900090919900A0919A00B0919B002A813B818C
:100CA000F9012081AC01BD01822F0E945E0689817D
:100CB0000F900F900F90DF91CF910895EF92FF92D8
:100CC0000F931F93CF93DF93CDB7DEB72D970FB65A
:100CD000F894DEBF0FBECDBF89874A875B876C87DC
:100CE0007D8719821A821B821C828985882F90E059
:100CF0008130910509F471C08230910509F4E6C094
:100D0000892B09F04DC18091A1009091A200CC01E6
:100D1000A0E0B0E09C01AD0160E472E48FE090E0FF
:100D20000E948408DC01CB01209194003091950051
:100D30004091960050919700BC01CD010E94A808F7
:100D4000DA01C9019C01AD018A859B85AC85BD8511
:100D5000BC01CD010E94A808DA01C9018D839E83E0
:100D6000AF83B8878D819E81AF81B88581309140F6
:100D7000A105B10528F019821A821B821C8215C1B7
:100D800020E031E040E050E08D819E81AF81B88568
:100D900079018A01E81AF90A0A0B1B0BD801C7016D
:100DA0008093980090939900A0939A00B0939B0031
:100DB00022E530E08091980090919900A0919A00EE
:100DC000B0919B00F901808381E090E0A0E0B0E069
:100DD00089839A83AB83BC83E8C08091A300909100
:100DE000A400CC01A0E0B0E09C01AD0160E472E49D
:100DF0008FE090E00E948408DC01CB0120919400F8
:100E0000309195004091960050919700BC01CD0122
:100E10000E94A808DA01C9019C01AD018A859B8561
:100E2000AC85BD85BC01CD010E94A808DA01C901CD
:100E30008D839E83AF83B8878D819E81AF81B88576
:100E40000197A140B10528F019821A821B821C82E9
:100E5000ACC020E030E041E050E08D819E81AF8168
:100E6000B88579018A01E81AF90A0A0B1B0BD80127
:100E7000C7018093980090939900A0939A00B09333
:100E80009B002DE430E08091980090919900A09112
:100E90009A00B0919B00892F9A2FAB2FBB27F901A5
:100EA00080832CE430E08091980090919900A0918B
:100EB0009A00B0919B00F901808381E090E0A0E06E
:100EC000B0E089839A83AB83BC836FC080919F001D
:100ED0009091A000CC01A0E0B0E09C01AD0160E4E5
:100EE00072E48FE090E00E948408DC01CB01209145
:100EF0009400309195004091960050919700BC016C
:100F0000CD010E94A808DA01C9019C01AD018A85C2
:100F10009B85AC85BD85BC01CD010E94A808DA0186
:100F2000C9018D839E83AF83B8878D819E81AF81F8
:100F3000B88581309140A105B10528F019821A8247
:100F40001B821C8232C020E031E040E050E08D8105
:100F50009E81AF81B88579018A01E81AF90A0A0BE6
:100F60001B0BD801C7018093980090939900A09320
:100F70009A00B0939B0024E430E080919800909117
:100F80009900A0919A00B0919B00F901808381E0C3
:100F900090E0A0E0B0E089839A83AB83BC8305C076
:100FA00019821A821B821C8200008A859B85AC856F
:100FB000BD858093980090939900A0939A00B09378
:100FC0009B0089812D960FB6F894DEBF0FBECDBF72
:100FD000DF91CF911F910F91FF90EF900895CF93E4
:100FE000DF931F92CDB7DEB789838981882F90E088
:100FF0008130910599F082309105E9F0892B09F053
:1010000027C083E590E023E530E0F9012081287FC7
:1010100030916000232BFC0120831AC08EE490E005
:101020002EE430E0F9012081287F30916100232BEC
:10103000FC0120830DC085E490E025E430E0F90157
:101040002081287F30916200232BFC012083000047
:1010500081E00F90DF91CF910895CF93DF9300D07F
:10106000CDB7DEB79A83898389819A8190939D0059
:1010700080939C0000000F900F90DF91CF91089516
:101080001F920F9200905F000F9211242F933F93B5
:101090004F935F936F937F938F939F93AF93BF9380
:1010A000EF93FF93CF93DF93CDB7DEB780919C0092
:1010B00090919D00892B31F080919C0090919D0032
:1010C000FC0109958091980090919900A0919A0057
:1010D000B0919B00AC01BD0181E00E945E06000062
:1010E000DF91CF91FF91EF91BF91AF919F918F9140
:1010F0007F916F915F914F913F912F910F9000924F
:101100005F000F901F901895DB018F939F930E94B3
:10111000CA08BF91AF91A29F800D911DA39F900D12
:10112000B29F900D11240895AA1BBB1B51E107C06B
:10113000AA1FBB1FA617B70710F0A61BB70B881F67
:10114000991F5A95A9F780959095BC01CD010895F6
:10115000A1E21A2EAA1BBB1BFD010DC0AA1FBB1FBB
:10116000EE1FFF1FA217B307E407F50720F0A21B2D
:10117000B30BE40BF50B661F771F881F991F1A949A
:1011800069F760957095809590959B01AC01BD01C4
:10119000CF0108950E94D508A59F900DB49F900D92
:1011A000A49F800D911D11240895A29FB001B39FAB
:1011B000C001A39F700D811D1124911DB29F700D60
:0C11C000811D1124911D0895F894FFCFAB
:0E11CC00010501010040420F000100127A00EF
:00000001FF
